:020000040800F2
:10000000580700209D010008C30A0008C10A000823
:1000100000000000000000000000000000000000E0
:10002000000000000000000000000000C70A0008F7
:100030000000000000000000C50A0008C90A00080E
:10004000AF010008AF010008AF010008AF010008D0
:10005000AF010008AF010008AF010008AF010008C0
:10006000AF010008AF010008AF010008AF010008B0
:10007000AF010008AF010008AF010008AF010008A0
:10008000AF010008AF01000800000000AF01000848
:10009000AF010008AF010008AF010008AF01000880
:1000A000AF010008AF010008AF010008AF01000870
:1000B000AF01000800000000AF01000800F002F8E6
:1000C00000F040F80CA030C8083824182D18671E1E
:1000D000A246AB4654465D46AC4201D100F032F830
:1000E0007E460F3EB6460FCC0126334200D0FB1AA7
:1000F0003343A246AB4618472C0D00004C0D0000C0
:10010000103A02D378C878C1FAD8520701D330C860
:1001100030C101D504680C60704700000023002442
:1001200000250026103A01D378C1FBD8520700D32E
:1001300030C100D50B6070471FB500F061F81FBDDE
:1001400010B510BD00F070F91146FFF7F5FF00F093
:1001500027FD00F088F903B4FFF7F2FF03BC00F0BD
:100160008BF9000030B40C490C684A6823681068A9
:10017000C0181060241D121D8C4207D28A4208D27A
:100180000C604A6030BC4000400870470C00DC3C0A
:10019000F6E70A00DC3AF3E7EC0000200748804766
:1001A00007480047FEE7FEE7FEE7FEE7FEE7FEE75B
:1001B00004480549054A064B704700000B0B000830
:1001C000BD000008580100205807002058030020F7
:1001D000580300200B4A30B511460B4C60310B46DA
:1001E000DC3B0CC1372106E0020C8D0012185A517D
:1001F000064A504300190A46491E002AF4DC30BD65
:100200000120E7E78C000020E119D666CD0D010042
:1002100001E004C0091F0429FBD28B0701D502802D
:10022000801CC90700D00270704700290BD0C3079B
:1002300002D00270401C491E022904D3830702D554
:100240000280801C891EE3E70022EEE70022DFE740
:10025000002203098B422CD3030A8B4211D30023C3
:100260009C464EE003460B433CD4002243088B429D
:1002700031D303098B421CD3030A8B4201D394462A
:100280003FE0C3098B4201D3CB01C01A524183091D
:100290008B4201D38B01C01A524143098B4201D3D7
:1002A0004B01C01A524103098B4201D30B01C01A02
:1002B0005241C3088B4201D3CB00C01A524183087C
:1002C0008B4201D38B00C01A524143088B4201D3A9
:1002D0004B00C01A5241411A00D201465241104609
:1002E00070475DE0CA0F00D04942031000D340427E
:1002F00053409C46002203098B422DD3030A8B42B4
:1003000012D38901FC2212BA030A8B420CD3890151
:1003100092118B4208D3890192118B4204D3890137
:100320003AD0921100E08909C3098B4201D3CB0175
:10033000C01A524183098B4201D38B01C01A52412A
:1003400043098B4201D34B01C01A524103098B422E
:1003500001D30B01C01A5241C3088B4201D3CB0019
:10036000C01A524183088B4201D38B00C01A5241FC
:10037000D9D243088B4201D34B00C01A5241411AD3
:1003800000D201465241104663465B1001D3404201
:10039000002B00D54942704763465B1000D34042B2
:1003A00001B50549002802DC491C084000E0084668
:1003B000C046C04602BD00BFFFFFFF7F70477047C9
:1003C00070471F22030C02D10F2200041CD0030E21
:1003D00001D10002083A030F01D10001121F830F5F
:1003E00001D18000921E002801DB4000521ED20580
:1003F0005118021251181922904004D3491C0028A8
:1004000001D14908490008467047C10FC90700D00B
:100410004042012292071143D3E701218907D0E727
:1004200000487047F40000207546FFF7F9FFAE461C
:10043000050069465346C008C000854618B020B57F
:10044000FFF7B6FE60BCB64600260027C0C5C0C593
:10045000C0C5C0C5C0C5C0C5C0C5C0C5403D4908B0
:1004600049008D46704710B50446C046C046204638
:10047000FFF771FE10BD000001491820ABBEFEE77A
:100480002600020070470000054800687047C0461B
:100490001A48007802490A68101808607047C04678
:1004A0005401002010B56248016810220A4302601E
:1004B0000024204600F004F800F022F8204610BD89
:1004C00070B504467D20C0000C4E3178FFF7C0FEA9
:1004D00001465A480068FFF7BBFE00F0D7FA012535
:1004E000032C08D8002806D10025E84321462A46D7
:1004F00000F01CF87460284670BDC0460000002063
:1005000082B009480168012211430160016811406D
:1005100001910199110742680A434260406808400E
:100520000090009802B070471810024080B500F0AB
:10053000EDFA80BDF8B500284ED004463C4B1A6851
:10054000012002408A4208D21A680126B2430A43B7
:100550001A601A6832408A4267D1009121688A077E
:100560000ED54A0705D507221202434D2B681343C7
:100570002B60414D2A68F0239A43A36813432B60F4
:10058000C9072BD12A4A10680126304000998842B9
:1005900007D91068B04308431060106830408842A3
:1005A00043D12078400707D507200002324A11685E
:1005B0008143E0680843106000F042F82E49096862
:1005C0000906090F1C4A515CC8401C4908600026F6
:1005D0003046FFF775FF28E0012626E06168264ACD
:1005E000121F012902D11268920305E01268022944
:1005F00001D1920100E09207064616D51E4A106806
:100600000326B04308431060FFF73EFF0746094D3D
:10061000194800680C210140606880008142B1D017
:10062000FFF732FFC01BA842F2D93046F8BDC046E2
:100630000020024088130000140E0008080000206B
:1006400010B50D490A680C2313400C48082B08D13B
:1006500093021B0F0AA4E45C896AD20303D41048F6
:1006600007E0044606E00F22114009A2515CFFF7A3
:10067000EFFD4443204610BD0410024000127A00F2
:1006800002030405060708090A0B0C0D0E0F1010D3
:100690000102030405060708090A0B0C0D0E0F10D2
:1006A00000093D00F0B587B007460120002F00D1BA
:1006B000C2E104903878C007F14E059711D07168F7
:1006C0000C200140042906D071680140082937D167
:1006D0007068C00334D53068800302D5786800287C
:1006E00038D0387880074ED570680007800F1BD04F
:1006F00070680C210140082902D17068C00313D52D
:100700003068059CE168002926D00121084330604B
:10071000FFF7BAFE0546306880072DD4FFF7B4FE18
:10072000401B0228F7D986E130688007059A02D578
:10073000D06801280ED13068F821884311691FE084
:100740007968002900D1C1E0012900D0D7E001205B
:100750000104DDE004986FE1012188433060FFF778
:1007600093FE0546306880070DD5FFF78DFE411BCF
:1007700003200229F6D95FE13068F8218843216916
:10078000C90001433160059C2078000720D42078FF
:10079000400730D42078C00600D4C4E0059A5169DF
:1007A000012971D1706B042101437163706B0121C8
:1007B00001437163FFF768FE0546706B800700D543
:1007C000A9E0FFF761FE411B03200229F5D933E1BF
:1007D000706AE169002918D0012108437062FFF7AF
:1007E00053FE0546706A8007D1D4FFF74DFE401BCB
:1007F0000228F7D91FE101221107F069C000019119
:10080000039211D50020029016E001218843706206
:10081000FFF73AFE0546706A8007B8D5FFF734FE49
:10082000401B0228F7D906E1F0690843F061F0693E
:100830000840069006980292924F3868C00511D57C
:1008400005988168904F00292AD00129039A06D083
:10085000306A052900D0BCE0042108433062306AC8
:100860001043BBE003980402386820433860FFF768
:100870000BFE054638682042E2D1FFF705FE411B1A
:1008800003206429F6D9D7E0706B491D00D08CE0B5
:10089000042188437063706BF821884391693FE0BD
:1008A000306A039988433062306A04218843306299
:1008B000FFF7EAFD0546306A800700D49BE0FFF7AA
:1008C000E3FD411B0320B942F5D9B5E00120010445
:1008D00032688A433260810432688A433260440459
:1008E000FFF7D2FD0546059F3068204200D1F8E6AB
:1008F000FFF7CAFD411B03206429F5D99CE030684D
:10090000052900D081E001218A04104330600904E8
:100910003068084380E0706BF82188430599896945
:10092000C900014371630598046A002C1AD07068ED
:100930000C210140082917D1012C04987CD00120FA
:10094000030471680B40F26A059D6C6AA34273D17F
:100950000F231A40EC6AA2426ED19A041140AA6A8F
:10096000914269D1002067E00120020631680492BB
:10097000914331604706FFF787FD0546022C0AD1F7
:10098000049C3068384259D0FFF77EFD411B03209C
:100990000229F6D950E030683842E3D0FFF774FD01
:1009A000411B03200229F6D946E004210843706365
:1009B000706B012188437063FFF766FD0546706B1D
:1009C0008007B0D5FFF760FD411B03200229F6D94F
:1009D00032E090433062306A042188433062FFF78E
:1009E00053FD0546306A800705D4FFF74DFD401BD7
:1009F000B842F7D91FE002980028059C00D1C9E64B
:100A0000F06901998843F061C4E601210A0490432A
:100A10003060890430688843306001204404FFF767
:100A200033FD05463068204200D05AE6FFF72CFD22
:100A3000401B6428F6D9032007B0F0BDF06A0F21EF
:100A40008843059AD16A0143F1623D200004716830
:100A50008143906A0843516A0143716030682043C2
:100A60003060FFF711FD04463068384200D079E766
:100A7000FFF70AFD011B03200229F5D9DCE7C04678
:100A8000001002400070004088130000401E010E5C
:100A900001D0012070470749074A506007480368A2
:100AA0000B4003218907591801600020906007213D
:100AB00011607047FFFFFF0010E000E020ED00E054
:100AC000FEE770477047704780B5FFF7E1FC80BDD7
:100AD000B0B590B004AD281D2C21FFF7B7FB002462
:100AE0000C941020089001200790022004902846C2
:100AF000FFF7D8FD03940294019407200090684604
:100B00002146FFF717FD10B0B0BD7047002805D48F
:100B10000322034693430C4A9A1806E00F22024030
:100B2000083A03239A43074BD2188007C00E890165
:100B3000C9B28140FF238340106898430843106086
:100B40007047C0461CED00E000E400E043604280D6
:100B500001807047B0B50C46014600F09BF8054691
:100B60002046214600F096F80146284600F04CF851
:100B7000B0BD70B50C4605460026A64204DA00F06A
:100B800004F801C5761CF8E770BD80B5FFF7EAFAF6
:100B9000FFF73BFC0321090700F07CF880BD000053
:100BA000BAB0FFF77FFCFFF793FF26AC1426204670
:100BB0003146FFF7DEFF12A801903146FFF7D9FF5B
:100BC00006A80A26022731463A4623460D4DA84775
:100BD00004A831463A46019B0A4DA8472F4602A871
:100BE000012208AD31462B46B84700260A2E08D20E
:100BF00003CC083CFFF7AEFF286008350834B61C6C
:100C0000F4E7FEE74D0B000870B50125ED07040081
:100C10004C4020D4441A01D2001B0919C60D4B00C8
:100C2000F2B2FF2A29D01B0E2CD000020C0228435E
:100C30002C43D31ADC40051910D2280A02D3401CD9
:100C40006D0611D0761EF6058019FF2A00DA70BDF8
:100C5000C00DC00570BD694000F07AF80120054361
:100C6000C541521C761CE8E764089C40C9016140FC
:100C70008900E7D10124A043E4E71B0E440200D021
:100C8000034870BD002AFCD1C00FC00770BD00BF73
:100C90000000C07F70B5420064414B005C41120E01
:100CA00039D01B0E38D0FF2A3CD0FF2B3AD0D218B7
:100CB0007F3A40024902400A490A4518ED01060000
:100CC0004E43000A090A48430104731A4019190CDB
:100CD0004318990F04D05B08012149075B1A521C85
:100CE000D80904D3401CF50301D19D0607D0FF2A83
:100CF00008D2D50506D0E4072043401970BD012570
:100D0000A843F4E7002A01DCE00770BD2402FF20BD
:100D10002043C00570BD1B0EFF2A03D0FF2B01D05E
:100D2000E00770BDFF2636064500B54206D84D00E7
:100D3000B54203D8D218FF2A00D0E7E7004870BDBB
:100D40000000C07F70B50125ED0704004C4022D49F
:100D5000441A02D26C40001B0919C60D4B00F2B2B6
:100D6000FF2A4BD01B0E50D000020C02A8432C438C
:100D7000D31ADC40051B05D5AD0019D36D08761ECE
:100D8000521E37D0F605280A01D2801970BD704175
:100D90006D0603D070BD6940FFF73CFF9C4009021F
:100DA0006140490001D0401E70BD0124A04370BDC8
:100DB0006D081DD001202B0C01D12D0410302B0EFD
:100DC00001D12D0208302B0F01D12D01001DAB0FD9
:100DD00001D1AD00801CEB0F01D16D00401C361A13
:100DE000121A6D00680AF5054019012A02DB70BD70
:100DF000002070BDC036300AC00770BD1B0E440213
:100E000001D1FF2B00D1024870BD002AF0D070BD87
:100E10000000C07F00000000000000000102030489
:100E200006070809440E0008000000200C0000001E
:100E300000010008500E00081000002048070000C4
:100E40001C010008010000000400000000127A00EC
:040000050800019D51
:00000001FF
